{
  "contractName": "PurchaseRegistry",
  "abi": [
    {
      "constant": true,
      "inputs": [],
      "name": "owner",
      "outputs": [
        {
          "name": "",
          "type": "address"
        }
      ],
      "payable": false,
      "stateMutability": "view",
      "type": "function"
    },
    {
      "inputs": [],
      "payable": false,
      "stateMutability": "nonpayable",
      "type": "constructor"
    },
    {
      "constant": false,
      "inputs": [
        {
          "name": "id",
          "type": "address"
        },
        {
          "name": "_x",
          "type": "address"
        }
      ],
      "name": "add",
      "outputs": [
        {
          "name": "",
          "type": "uint256"
        }
      ],
      "payable": false,
      "stateMutability": "nonpayable",
      "type": "function"
    },
    {
      "constant": true,
      "inputs": [
        {
          "name": "id",
          "type": "address"
        }
      ],
      "name": "getPurchaseLength",
      "outputs": [
        {
          "name": "",
          "type": "uint256"
        }
      ],
      "payable": false,
      "stateMutability": "view",
      "type": "function"
    },
    {
      "constant": true,
      "inputs": [
        {
          "name": "id",
          "type": "address"
        },
        {
          "name": "index",
          "type": "uint256"
        }
      ],
      "name": "getPurchase",
      "outputs": [
        {
          "name": "addr",
          "type": "address"
        },
        {
          "name": "stage",
          "type": "uint256"
        }
      ],
      "payable": false,
      "stateMutability": "view",
      "type": "function"
    }
  ],
  "bytecode": "0x608060405234801561001057600080fd5b5060008054600160a060020a03191633179055610b61806100326000396000f3006080604052600436106100615763ffffffff7c010000000000000000000000000000000000000000000000000000000060003504166304f3f00681146100665780632a2a92cc1461009957806352c28fab146100e05780638da5cb5b14610107575b600080fd5b34801561007257600080fd5b50610087600160a060020a0360043516610138565b60408051918252519081900360200190f35b3480156100a557600080fd5b506100bd600160a060020a0360043516602435610153565b60408051600160a060020a03909316835260208301919091528051918290030190f35b3480156100ec57600080fd5b50610087600160a060020a0360043581169060243516610267565b34801561011357600080fd5b5061011c610318565b60408051600160a060020a039092168252519081900360200190f35b600160a060020a031660009081526002602052604090205490565b600160a060020a038216600090815260016020526040812080548291908490811061017a57fe5b6000918252602080832090910154600160a060020a038781168452600190925260409092208054919092169190859081106101b157fe5b9060005260206000200160009054906101000a9004600160a060020a0316600160a060020a031663c040e6b86040518163ffffffff167c0100000000000000000000000000000000000000000000000000000000028152600401602060405180830381600087803b15801561022557600080fd5b505af1158015610239573d6000803e3d6000fd5b505050506040513d602081101561024f57600080fd5b5051600681111561025c57fe5b909590945092505050565b600160a060020a03821660009081526001602052604081208233610289610327565b600160a060020a03928316815291166020820152604080519182900301906000f0801580156102bc573d6000803e3d6000fd5b5081546001808201845560009384526020808520909201805473ffffffffffffffffffffffffffffffffffffffff1916600160a060020a0394851617905595909116825260029052604090208054909301928390555090919050565b600054600160a060020a031681565b6040516107fe8061033883390190560060806040526003805460ff1916905534801561001a57600080fd5b506040516040806107fe83398101604052805160209091015160018054600160a060020a03928316600160a060020a031991821617909155600080549290931691161790554260025561078c806100726000396000f3006080604052600436106100745763ffffffff60e060020a6000350416631b9265b88114610079578063325a19f1146100835780637150d8ae146100aa578063a3c0ac10146100db578063c040e6b8146100f0578063c39b684014610129578063d51653271461018a578063ee2c8ea01461019f575b600080fd5b610081610200565b005b34801561008f57600080fd5b506100986102e8565b60408051918252519081900360200190f35b3480156100b657600080fd5b506100bf6102ee565b60408051600160a060020a039092168252519081900360200190f35b3480156100e757600080fd5b506100816102fd565b3480156100fc57600080fd5b50610105610311565b6040518082600681111561011557fe5b60ff16815260200191505060405180910390f35b34801561013557600080fd5b5060408051602060046024803582810135601f810185900485028601850190965285855261008195833560ff1695369560449491939091019190819084018382808284375094975061033f9650505050505050565b34801561019657600080fd5b506100bf61059c565b3480156101ab57600080fd5b5060408051602060046024803582810135601f810185900485028601850190965285855261008195833560ff169536956044949193909101919081908401838280828437509497506105ab9650505050505050565b6000809054906101000a9004600160a060020a0316600160a060020a031663a035b1fe6040518163ffffffff1660e060020a028152600401602060405180830381600087803b15801561025257600080fd5b505af1158015610266573d6000803e3d6000fd5b505050506040513d602081101561027c57600080fd5b50513031106102e657600380546001919060ff191682805b02179055506003546040517f297fa9ffcce4a8f1e427986966e131669169a104212e72d48d20e935391873399160ff1690808260068111156102d257fe5b60ff16815260200191505060405180910390a15b565b60025481565b600154600160a060020a031681565b600380546002919060ff1916600183610294565b6000600260035460ff16600681111561032657fe5b14156103345750600361033c565b5060035460ff165b90565b6003805460ff19166006908117918290556040517f297fa9ffcce4a8f1e427986966e131669169a104212e72d48d20e935391873399260ff16918190839081111561038657fe5b60ff16815260200191505060405180910390a17fdfb7c05c34f1e510643d0afd4a7720308aa8820f72e6b29d860780eefb8deb196000809054906101000a9004600160a060020a0316600160a060020a0316638da5cb5b6040518163ffffffff1660e060020a028152600401602060405180830381600087803b15801561040c57600080fd5b505af1158015610420573d6000803e3d6000fd5b505050506040513d602081101561043657600080fd5b505160015460408051600160a060020a038085168252909216602083810182905260ff881692840192909252608060608401818152875191850191909152865191938893889391929160a084019185019080838360005b838110156104a557818101518382015260200161048d565b50505050905090810190601f1680156104d25780820380516001836020036101000a031916815260200191505b509550505050505060405180910390a16000809054906101000a9004600160a060020a0316600160a060020a0316638da5cb5b6040518163ffffffff1660e060020a028152600401602060405180830381600087803b15801561053457600080fd5b505af1158015610548573d6000803e3d6000fd5b505050506040513d602081101561055e57600080fd5b5051604051600160a060020a0390911690303180156108fc02916000818181858888f19350505050158015610597573d6000803e3d6000fd5b505050565b600054600160a060020a031681565b6003805460ff19168117908190556040517f297fa9ffcce4a8f1e427986966e131669169a104212e72d48d20e935391873399160ff1690808260068111156105ef57fe5b60ff16815260200191505060405180910390a160015460008054604080517f8da5cb5b00000000000000000000000000000000000000000000000000000000815290517fdfb7c05c34f1e510643d0afd4a7720308aa8820f72e6b29d860780eefb8deb1994600160a060020a0390811694931692638da5cb5b92600480820193602093909283900390910190829087803b15801561068c57600080fd5b505af11580156106a0573d6000803e3d6000fd5b505050506040513d60208110156106b657600080fd5b505160408051600160a060020a038085168252831660208281019190915260ff881692820192909252608060608201818152875191830191909152865188938893929160a084019185019080838360005b8381101561071f578181015183820152602001610707565b50505050905090810190601f16801561074c5780820380516001836020036101000a031916815260200191505b509550505050505060405180910390a150505600a165627a7a72305820e8b0aee31c258518d572964e50db2b070aadb3b7b52e31db2890f93f294a48140029a165627a7a72305820bf9ce3fd0d05590cecd2d0d1cdae86f5ff43790f99c560fe06ee2271a2ed6bf20029",
  "source": "pragma solidity 0.4.24;\r\n\r\nimport \"./Purchase.sol\";\r\n\r\ncontract PurchaseRegistry{\r\n\r\n      constructor()\r\n        public\r\n    {\r\n        owner = msg.sender;\r\n    }\r\n\r\n  address public owner;\r\n\r\n    mapping(address => Purchase[]) foo;\r\n    mapping(address => uint) cnt;\r\n    \r\n    function add(address id, address _x) public returns(uint) {\r\n        foo[id].push(new Purchase(_x, msg.sender));\r\n        cnt[id] = cnt[id] + 1;\r\n\r\n        return cnt[id];\r\n    }\r\n\r\n    function getPurchaseLength(address id) public constant returns(uint) {\r\n        return cnt[id];\r\n    }\r\n\r\n    function getPurchase(address id, uint index) public constant returns(address addr, uint stage) {\r\n        return (foo[id][index], uint(foo[id][index].stage()));\r\n    }\r\n}",
  "sourcePath": "E:\\my-store\\contracts\\PurchaseRegistry.sol",
  "compiler": {
    "name": "solc",
    "version": "0.4.24+commit.e67f0147.Emscripten.clang"
  },
  "schemaVersion": "2.0.0",
  "updatedAt": "2018-06-12T18:17:21.863Z"
}