{
  "contractName": "PurchaseLibrary",
  "abi": [
    {
      "constant": false,
      "inputs": [
        {
          "name": "listing",
          "type": "Listing"
        },
        {
          "name": "_buyer",
          "type": "address"
        }
      ],
      "name": "newPurchase",
      "outputs": [
        {
          "name": "purchase",
          "type": "Purchase"
        }
      ],
      "payable": false,
      "stateMutability": "nonpayable",
      "type": "function"
    }
  ],
  "bytecode": "0x610947610030600b82828239805160001a6073146000811461002057610022565bfe5b5030600052607381538281f30073000000000000000000000000000000000000000030146080604052600436106100575763ffffffff7c01000000000000000000000000000000000000000000000000000000006000350416631c6b9b03811461005c575b600080fd5b81801561006857600080fd5b5061009073ffffffffffffffffffffffffffffffffffffffff600435811690602435166100b9565b6040805173ffffffffffffffffffffffffffffffffffffffff9092168252519081900360200190f35b600082826100c561010d565b73ffffffffffffffffffffffffffffffffffffffff928316815291166020820152604080519182900301906000f080158015610105573d6000803e3d6000fd5b509392505050565b6040516107fe8061011e83390190560060806040526003805460ff1916905534801561001a57600080fd5b506040516040806107fe83398101604052805160209091015160018054600160a060020a03928316600160a060020a031991821617909155600080549290931691161790554260025561078c806100726000396000f3006080604052600436106100745763ffffffff60e060020a6000350416631b9265b88114610079578063325a19f1146100835780637150d8ae146100aa578063a3c0ac10146100db578063c040e6b8146100f0578063c39b684014610129578063d51653271461018a578063ee2c8ea01461019f575b600080fd5b610081610200565b005b34801561008f57600080fd5b506100986102e8565b60408051918252519081900360200190f35b3480156100b657600080fd5b506100bf6102ee565b60408051600160a060020a039092168252519081900360200190f35b3480156100e757600080fd5b506100816102fd565b3480156100fc57600080fd5b50610105610311565b6040518082600681111561011557fe5b60ff16815260200191505060405180910390f35b34801561013557600080fd5b5060408051602060046024803582810135601f810185900485028601850190965285855261008195833560ff1695369560449491939091019190819084018382808284375094975061033f9650505050505050565b34801561019657600080fd5b506100bf61059c565b3480156101ab57600080fd5b5060408051602060046024803582810135601f810185900485028601850190965285855261008195833560ff169536956044949193909101919081908401838280828437509497506105ab9650505050505050565b6000809054906101000a9004600160a060020a0316600160a060020a031663a035b1fe6040518163ffffffff1660e060020a028152600401602060405180830381600087803b15801561025257600080fd5b505af1158015610266573d6000803e3d6000fd5b505050506040513d602081101561027c57600080fd5b50513031106102e657600380546001919060ff191682805b02179055506003546040517f297fa9ffcce4a8f1e427986966e131669169a104212e72d48d20e935391873399160ff1690808260068111156102d257fe5b60ff16815260200191505060405180910390a15b565b60025481565b600154600160a060020a031681565b600380546002919060ff1916600183610294565b6000600260035460ff16600681111561032657fe5b14156103345750600361033c565b5060035460ff165b90565b6003805460ff19166006908117918290556040517f297fa9ffcce4a8f1e427986966e131669169a104212e72d48d20e935391873399260ff16918190839081111561038657fe5b60ff16815260200191505060405180910390a17fdfb7c05c34f1e510643d0afd4a7720308aa8820f72e6b29d860780eefb8deb196000809054906101000a9004600160a060020a0316600160a060020a0316638da5cb5b6040518163ffffffff1660e060020a028152600401602060405180830381600087803b15801561040c57600080fd5b505af1158015610420573d6000803e3d6000fd5b505050506040513d602081101561043657600080fd5b505160015460408051600160a060020a038085168252909216602083810182905260ff881692840192909252608060608401818152875191850191909152865191938893889391929160a084019185019080838360005b838110156104a557818101518382015260200161048d565b50505050905090810190601f1680156104d25780820380516001836020036101000a031916815260200191505b509550505050505060405180910390a16000809054906101000a9004600160a060020a0316600160a060020a0316638da5cb5b6040518163ffffffff1660e060020a028152600401602060405180830381600087803b15801561053457600080fd5b505af1158015610548573d6000803e3d6000fd5b505050506040513d602081101561055e57600080fd5b5051604051600160a060020a0390911690303180156108fc02916000818181858888f19350505050158015610597573d6000803e3d6000fd5b505050565b600054600160a060020a031681565b6003805460ff19168117908190556040517f297fa9ffcce4a8f1e427986966e131669169a104212e72d48d20e935391873399160ff1690808260068111156105ef57fe5b60ff16815260200191505060405180910390a160015460008054604080517f8da5cb5b00000000000000000000000000000000000000000000000000000000815290517fdfb7c05c34f1e510643d0afd4a7720308aa8820f72e6b29d860780eefb8deb1994600160a060020a0390811694931692638da5cb5b92600480820193602093909283900390910190829087803b15801561068c57600080fd5b505af11580156106a0573d6000803e3d6000fd5b505050506040513d60208110156106b657600080fd5b505160408051600160a060020a038085168252831660208281019190915260ff881692820192909252608060608201818152875191830191909152865188938893929160a084019185019080838360005b8381101561071f578181015183820152602001610707565b50505050905090810190601f16801561074c5780820380516001836020036101000a031916815260200191505b509550505050505060405180910390a150505600a165627a7a72305820e8b0aee31c258518d572964e50db2b070aadb3b7b52e31db2890f93f294a48140029a165627a7a723058206f68998d3b74a82a9d8f9db0b58c3b71431c15c91bb61180c1ec7aa35622a1850029",
  "source": "pragma solidity 0.4.24;\r\n\r\n/// @title PurchaseLibrary\r\n/// @dev An collection of helper tools for a purchase\r\n\r\nimport \"./Purchase.sol\";\r\nimport \"./Listing.sol\";\r\n\r\nlibrary PurchaseLibrary {\r\n\r\n    function newPurchase(Listing listing, address _buyer)\r\n    public\r\n    returns (Purchase purchase)\r\n    {\r\n        purchase = new Purchase(listing, _buyer);\r\n    }\r\n\r\n}\r\n",
  "sourcePath": "E:\\my-store\\contracts\\PurchaseLibrary.sol",
  "compiler": {
    "name": "solc",
    "version": "0.4.24+commit.e67f0147.Emscripten.clang"
  },
  "schemaVersion": "2.0.0",
  "updatedAt": "2018-06-12T18:17:17.482Z"
}